:100000006F00A04700000000320100003601000030
:1000100000000000000000000000000000000000E0
:1000200000000000000000000000000000000000D0
:1000300048040000000000004A0400000000000026
:100040004C0400004E040000500400005204000064
:100050005404000056040000580400005A04000034
:100060005C0400005E040000600400006204000004
:100070006404000066040000C00200007C0300006D
:100080006C0400006E0400007004000072040000A4
:1000900074040000760400007804000000000000F2
:1000A000511126C022C206C4828282441244A24058
:1000B00031018280634E050263C305042E86AA8542
:1000C0007D5515C285466378B6006356C0000606A6
:1000D0008606E36CB6FE014563E4C500918D558D3F
:1000E00085820582F5FA82808682C93F2E858282CA
:1000F0003305A04063D70500B305B040C1B7B305D1
:10010000B0408682653F3305A0408282868263C705
:100110000500634905005D372E858282B305B04036
:10012000E35B05FE3305A040513F3305B0408282BA
:1001300000007300203001A0EFF29FF6130181FD53
:100140002AC42EC213055003854502C602C802CA3E
:1001500002CC02CE02D002D20D2585453705200003
:10016000252D91470944F1446C00371501407C86E8
:1001700026CA22C859266C0037150140608626CA57
:1001800022C8A52E37140140C1478D4441476C0059
:10019000130504407C863ACA26C88526130300024C
:1001A00041476C0013050440231661001AC03ACA87
:1001B00026C8A1269305000441476C861305044018
:1001C0006C003ACA26C8152EA24612463754004083
:1001D0009307004036CC2311F102B7060040916727
:1001E0002C081305044036CE2310C1022312F1025D
:1001F000ED261305044085456D298145130504400E
:10020000E921035744400243B7E700E01367074082
:100210002312E44003574440B70600401367072009
:100220002312E44003574440136707102312E440AD
:1002300023A0D710238F67403707008023A0E71043
:10024000130181029DB5EFF2BFE5B5233725060006
:1002500093058006130505A8C535371401400146EE
:10026000C14513050440AD26014693050002130560
:100270000440B92E01469305000413050440892E5D
:10028000B704002083A7C4021387C40291E301A02E
:10029000FD17EDFF37140140130504400146930597
:1002A0000002232007002D26130504400146930574
:1002B0000004392E0146C14513050440112ED9B75B
:1002C000130141FD36C4B756004032C63AC203D7C7
:1002D000464103D6864103D6064006D416D21AD02C
:1002E0001ECE22CC2ACA2EC83EC0136606402390DA
:1002F000C6401377070431CB83D70641B7060020E9
:10030000C207C1831387F7FF133717002384E60260
:100310000547639BE7043714014005469305000237
:100320001305044075240146930500041305044099
:1003300045240546C14513050440592CC1673707BC
:100340000020938707A02326F7026244A25092520E
:100350000253F2435245C2453246A24612478247F3
:100360001301C10273002030371401400146930588
:10037000000213050440A92C05467DB7511136C46F
:10038000B75600403EC083D746413AC2C207C18338
:1003900013F7071019CB93860640DA2A42074183E8
:1003A0001377F7EF42074183DAAA13F7072009CF43
:1003B000B756004003D74641420741831377F7DF22
:1003C00042074183239AE64093F7074089CF375786
:1003D000004083574741C207C18393F7F7BFC20765
:1003E000C183231AF740A2461247824731017300A6
:1003F0002030B71702409843B706FFFC1367170079
:1004000098C3D843758FD8C39843B706F7FEFD1637
:10041000758F98C39843B706FCFFFD16758F98C378
:10042000D843C176FD16758FD8C337079F0098C78C
:10043000372702401443F19A14C3144314C3D8431A
:10044000D8C3828001A001A001A001A001A001A049
:1004500001A001A001A001A001A001A001A001A094
:1004600001A001A001A001A001A001A001A001A084
:1004700001A001A001A001A001A09701002093818B
:10048000E13A138181FD1305807E97050020938555
:1004900065B717060020130666B963FAC500832204
:1004A000050023A0550011059105E3EAC5FE1705D7
:1004B00000201305A5B79385C1806377B50023207D
:1004C00005001105E36DB5FE93020008739002303C
:1004D0008D4273904280970200009382A2B293E211
:1004E000320073905230EFF0DFF0970200009382F9
:1004F000C2D573901234730020309C45611122C222
:1005000026C013F7070113F3F70001C7D84133637F
:10051000E30092211377F60F29C7832305000147D3
:1005200013048002930480048546B395E600B376F5
:10053000B6006392D50293122700BD46B3965600CB
:1005400093C6F6FFB3F37600B3125300B3E3720021
:10055000639787064CC90507A146E317D7FC2320FC
:1005600075001307F00F6378C70483234500A14685
:1005700013048002930480040547B312D700337735
:1005800056006394E202139726000117BD45B39508
:10059000E50093C5F5FFB3F375003317E300B363CC
:1005A000770063928702232A550085064147E39529
:1005B000E6FC232275001244824421018280E39CE0
:1005C00097F80CC949BFE39297FE23285500F1BF65
:1005D00019C20CC982804CC98280EFF27FAC111124
:1005E00046212A8428002EC0F528C246C204C180B4
:1005F00093F404FCB7450F00938505243685C204A7
:1006000036C2C180653C458D420541814AA01E200D
:100610009246C207C183F99BC207C1831EA08247CD
:100620009043E1679387076A9315160063E4C70454
:1006300036856934AA874205418191466373D500A6
:1006400091471395070141814AAC1E20024793E769
:1006500017001EA01E2056233227C207C183D18E49
:1006600093F757BFD58F1EA016275E27D58F1EA4E0
:10067000710125BC8247EA23B167FD17631FF500AE
:10068000B2953685253C420541819317450199E392
:1006900013651500A1675D8D45BFB387C5008E0743
:1006A000B385C7003685193C4205418191675D8D50
:1006B000E9BF1E2189C593E717001EA18280C207EA
:1006C000C183F99BC207C183CDBF1E2189E593E792
:1006D00007081EA18280C207C18393F7F7F7C207FC
:1006E000C183C5BFEFF2DF9B371702405C439146E1
:1006F0002A84B18B6385D700A146638AD706B737B2
:100700006E01938707601CC0B7160240DC429183DC
:1007100013F7F700B707002093878701BA978C2358
:10072000DC42184093F5F50F93F707083355B700EF
:1007300099E33A85613248C008C448C4B7170240FB
:10074000DC43AD83FD8B13D737008A07F18BD98F3C
:1007500093F637010D476373D700D1173707002091
:1007600013074700BA978C23913A08C83DBA5C43F7
:10077000B777DC02938707C079B799C5371702406E
:100780001C4F5D8D08CF8280B7170240984F1345EC
:10079000F5FF798D88CF828099C5371702405C4F6D
:1007A0005D8D48CF8280B7170240D84F1345F5FFC3
:1007B000798DC8CF8280EFF2BF8EB707002003A5E6
:1007C0000700B7157A0093850520CD381375F50F0E
:1007D0002385A18093175500898F8A073E950E05C2
:0807E0002394A1806FF07F8CCF
:1007E80000366E010204060804080C1008101820D0
:1007F80010203040204060800102030405060708ED
:080808000102030405060708C4
:00000001FF
